{
  "contractName": "VoteFactory",
  "abi": [
    {
      "constant": true,
      "inputs": [
        {
          "name": "",
          "type": "uint256"
        }
      ],
      "name": "votes",
      "outputs": [
        {
          "name": "question",
          "type": "string"
        }
      ],
      "payable": false,
      "stateMutability": "view",
      "type": "function"
    },
    {
      "constant": true,
      "inputs": [],
      "name": "owner",
      "outputs": [
        {
          "name": "",
          "type": "address"
        }
      ],
      "payable": false,
      "stateMutability": "view",
      "type": "function"
    },
    {
      "constant": false,
      "inputs": [
        {
          "name": "_newOwner",
          "type": "address"
        }
      ],
      "name": "transferOwnership",
      "outputs": [],
      "payable": false,
      "stateMutability": "nonpayable",
      "type": "function"
    },
    {
      "constant": false,
      "inputs": [
        {
          "name": "_question",
          "type": "string"
        }
      ],
      "name": "createVote",
      "outputs": [],
      "payable": false,
      "stateMutability": "nonpayable",
      "type": "function"
    },
    {
      "constant": false,
      "inputs": [
        {
          "name": "_voteId",
          "type": "uint256"
        },
        {
          "name": "_answer",
          "type": "string"
        }
      ],
      "name": "addAnswer",
      "outputs": [],
      "payable": false,
      "stateMutability": "nonpayable",
      "type": "function"
    }
  ],
  "bytecode": "0x6080604052336000806101000a81548173ffffffffffffffffffffffffffffffffffffffff021916908373ffffffffffffffffffffffffffffffffffffffff160217905550610856806100536000396000f30060806040526004361061006d576000357c0100000000000000000000000000000000000000000000000000000000900463ffffffff16806313292a02146100725780635df81330146100db5780637491995a146101815780638da5cb5b146101f4578063f2fde38b1461024b575b600080fd5b34801561007e57600080fd5b506100d9600480360381019080803590602001908201803590602001908080601f016020809104026020016040519081016040528093929190818152602001838380828437820191505050505050919291929050505061028e565b005b3480156100e757600080fd5b506101066004803603810190808035906020019092919050505061039d565b6040518080602001828103825283818151815260200191508051906020019080838360005b8381101561014657808201518184015260208101905061012b565b50505050905090810190601f1680156101735780820380516001836020036101000a031916815260200191505b509250505060405180910390f35b34801561018d57600080fd5b506101f260048036038101908080359060200190929190803590602001908201803590602001908080601f0160208091040260200160405190810160405280939291908181526020018383808284378201915050505050509192919290505050610462565b005b34801561020057600080fd5b50610209610532565b604051808273ffffffffffffffffffffffffffffffffffffffff1673ffffffffffffffffffffffffffffffffffffffff16815260200191505060405180910390f35b34801561025757600080fd5b5061028c600480360381019080803573ffffffffffffffffffffffffffffffffffffffff169060200190929190505050610557565b005b6000600180604080519081016040528085815260200160006040519080825280602002602001820160405280156102d957816020015b60608152602001906001900390816102c45790505b50815250908060018154018082558091505090600182039060005260206000209060020201600090919290919091506000820151816000019080519060200190610324929190610631565b5060208201518160010190805190602001906103419291906106b1565b505050039050336002600083815260200190815260200160002060006101000a81548173ffffffffffffffffffffffffffffffffffffffff021916908373ffffffffffffffffffffffffffffffffffffffff1602179055505050565b6001818154811015156103ac57fe5b9060005260206000209060020201600091509050806000018054600181600116156101000203166002900480601f0160208091040260200160405190810160405280929190818152602001828054600181600116156101000203166002900480156104585780601f1061042d57610100808354040283529160200191610458565b820191906000526020600020905b81548152906001019060200180831161043b57829003601f168201915b5050505050905081565b813373ffffffffffffffffffffffffffffffffffffffff166002600083815260200190815260200160002060009054906101000a900473ffffffffffffffffffffffffffffffffffffffff1673ffffffffffffffffffffffffffffffffffffffff161415156104d057600080fd5b6001838154811015156104df57fe5b906000526020600020906002020160010182908060018154018082558091505090600182039060005260206000200160009091929091909150908051906020019061052b929190610711565b5050505050565b6000809054906101000a900473ffffffffffffffffffffffffffffffffffffffff1681565b6000809054906101000a900473ffffffffffffffffffffffffffffffffffffffff1673ffffffffffffffffffffffffffffffffffffffff163373ffffffffffffffffffffffffffffffffffffffff161415156105b257600080fd5b600073ffffffffffffffffffffffffffffffffffffffff168173ffffffffffffffffffffffffffffffffffffffff16141515156105ee57600080fd5b806000806101000a81548173ffffffffffffffffffffffffffffffffffffffff021916908373ffffffffffffffffffffffffffffffffffffffff16021790555050565b828054600181600116156101000203166002900490600052602060002090601f016020900481019282601f1061067257805160ff19168380011785556106a0565b828001600101855582156106a0579182015b8281111561069f578251825591602001919060010190610684565b5b5090506106ad9190610791565b5090565b828054828255906000526020600020908101928215610700579160200282015b828111156106ff5782518290805190602001906106ef929190610631565b50916020019190600101906106d1565b5b50905061070d91906107b6565b5090565b828054600181600116156101000203166002900490600052602060002090601f016020900481019282601f1061075257805160ff1916838001178555610780565b82800160010185558215610780579182015b8281111561077f578251825591602001919060010190610764565b5b50905061078d9190610791565b5090565b6107b391905b808211156107af576000816000905550600101610797565b5090565b90565b6107df91905b808211156107db57600081816107d291906107e2565b506001016107bc565b5090565b90565b50805460018160011615610100020316600290046000825580601f106108085750610827565b601f0160209004906000526020600020908101906108269190610791565b5b505600a165627a7a72305820159dc2eeb6f73ade53298b4c31ca883a9a987ba32cb9c1263aab0bc007203a260029",
  "source": "pragma solidity ^0.4.24;\r\n\r\nimport \"./Ownable.sol\";\r\n\r\ncontract VoteFactory is Ownable {\r\n\r\n    struct Vote {\r\n        string question;\r\n        string[] answers;\r\n    }\r\n    \r\n    Vote[] public votes;\r\n    mapping (uint => address) voteToOwner;\r\n    \r\n    modifier onlyVoteOwner(uint _voteId) {\r\n        require(voteToOwner[_voteId] == msg.sender);\r\n        _;\r\n    }    \r\n    \r\n    function createVote(string _question) public {\r\n        uint VoteId = votes.push(Vote(_question, new string[](0))) - 1;\r\n        voteToOwner[VoteId] = msg.sender;\r\n    }\r\n    \r\n    function addAnswer(uint _voteId, string _answer) onlyVoteOwner(_voteId) public {\r\n        votes[_voteId].answers.push(_answer);\r\n    }\r\n}",
  "sourcePath": "/Users/Alexander/Documents/VoteFactory/contracts/VoteFactory.sol",
  "compiler": {
    "name": "solc",
    "version": "0.4.24+commit.e67f0147.Emscripten.clang"
  },
  "schemaVersion": "2.0.1",
  "updatedAt": "2018-07-13T10:26:43.599Z"
}