{
  "contractName": "VoteFactory",
  "abi": [
    {
      "constant": true,
      "inputs": [
        {
          "name": "",
          "type": "uint256"
        }
      ],
      "name": "votes",
      "outputs": [
        {
          "name": "question",
          "type": "string"
        }
      ],
      "payable": false,
      "stateMutability": "view",
      "type": "function"
    },
    {
      "inputs": [],
      "payable": false,
      "stateMutability": "nonpayable",
      "type": "constructor"
    },
    {
      "constant": false,
      "inputs": [
        {
          "name": "_question",
          "type": "string"
        }
      ],
      "name": "createVote",
      "outputs": [],
      "payable": false,
      "stateMutability": "nonpayable",
      "type": "function"
    },
    {
      "constant": false,
      "inputs": [
        {
          "name": "_voteId",
          "type": "uint256"
        },
        {
          "name": "_answer",
          "type": "string"
        }
      ],
      "name": "addAnswer",
      "outputs": [],
      "payable": false,
      "stateMutability": "nonpayable",
      "type": "function"
    }
  ],
  "bytecode": "0x608060405234801561001057600080fd5b50336000806101000a81548173ffffffffffffffffffffffffffffffffffffffff021916908373ffffffffffffffffffffffffffffffffffffffff1602179055506106a7806100606000396000f300608060405260043610610057576000357c0100000000000000000000000000000000000000000000000000000000900463ffffffff16806313292a021461005c5780635df81330146100c55780637491995a1461016b575b600080fd5b34801561006857600080fd5b506100c3600480360381019080803590602001908201803590602001908080601f01602080910402602001604051908101604052809392919081815260200183838082843782019150505050505091929192905050506101de565b005b3480156100d157600080fd5b506100f0600480360381019080803590602001909291905050506102ed565b6040518080602001828103825283818151815260200191508051906020019080838360005b83811015610130578082015181840152602081019050610115565b50505050905090810190601f16801561015d5780820380516001836020036101000a031916815260200191505b509250505060405180910390f35b34801561017757600080fd5b506101dc60048036038101908080359060200190929190803590602001908201803590602001908080601f01602080910402602001604051908101604052809392919081815260200183838082843782019150505050505091929192905050506103b2565b005b60006001806040805190810160405280858152602001600060405190808252806020026020018201604052801561022957816020015b60608152602001906001900390816102145790505b50815250908060018154018082558091505090600182039060005260206000209060020201600090919290919091506000820151816000019080519060200190610274929190610482565b506020820151816001019080519060200190610291929190610502565b505050039050336002600083815260200190815260200160002060006101000a81548173ffffffffffffffffffffffffffffffffffffffff021916908373ffffffffffffffffffffffffffffffffffffffff1602179055505050565b6001818154811015156102fc57fe5b9060005260206000209060020201600091509050806000018054600181600116156101000203166002900480601f0160208091040260200160405190810160405280929190818152602001828054600181600116156101000203166002900480156103a85780601f1061037d576101008083540402835291602001916103a8565b820191906000526020600020905b81548152906001019060200180831161038b57829003601f168201915b5050505050905081565b813373ffffffffffffffffffffffffffffffffffffffff166002600083815260200190815260200160002060009054906101000a900473ffffffffffffffffffffffffffffffffffffffff1673ffffffffffffffffffffffffffffffffffffffff1614151561042057600080fd5b60018381548110151561042f57fe5b906000526020600020906002020160010182908060018154018082558091505090600182039060005260206000200160009091929091909150908051906020019061047b929190610562565b5050505050565b828054600181600116156101000203166002900490600052602060002090601f016020900481019282601f106104c357805160ff19168380011785556104f1565b828001600101855582156104f1579182015b828111156104f05782518255916020019190600101906104d5565b5b5090506104fe91906105e2565b5090565b828054828255906000526020600020908101928215610551579160200282015b82811115610550578251829080519060200190610540929190610482565b5091602001919060010190610522565b5b50905061055e9190610607565b5090565b828054600181600116156101000203166002900490600052602060002090601f016020900481019282601f106105a357805160ff19168380011785556105d1565b828001600101855582156105d1579182015b828111156105d05782518255916020019190600101906105b5565b5b5090506105de91906105e2565b5090565b61060491905b808211156106005760008160009055506001016105e8565b5090565b90565b61063091905b8082111561062c57600081816106239190610633565b5060010161060d565b5090565b90565b50805460018160011615610100020316600290046000825580601f106106595750610678565b601f01602090049060005260206000209081019061067791906105e2565b5b505600a165627a7a723058200cd85522a15aee99abe5428608215db74066b910d355bc7cf20fda13c6d2374e0029",
  "source": "pragma solidity ^0.4.19;\r\n\r\ncontract VoteFactory {\r\n    \r\n    address owner;\r\n\r\n    struct Vote {\r\n        string question;\r\n        string[] answers;\r\n    }\r\n    \r\n    Vote[] public votes;\r\n    mapping (uint => address) voteToOwner;\r\n    \r\n    constructor () public {\r\n        owner = msg.sender;\r\n    }\r\n    \r\n    modifier onlyVoteOwner(uint _voteId) {\r\n        require(voteToOwner[_voteId] == msg.sender);\r\n        _;\r\n    }    \r\n    \r\n    function createVote(string _question) public {\r\n        uint VoteId = votes.push(Vote(_question, new string[](0))) - 1;\r\n        voteToOwner[VoteId] = msg.sender;\r\n    }\r\n    \r\n    function addAnswer(uint _voteId, string _answer) onlyVoteOwner(_voteId) public {\r\n        votes[_voteId].answers.push(_answer);\r\n    }\r\n}",
  "sourcePath": "/Users/Alexander/Documents/VoteFactory/contracts/VoteFactory.sol",
  "compiler": {
    "name": "solc",
    "version": "0.4.24+commit.e67f0147.Emscripten.clang"
  },
  "schemaVersion": "2.0.1",
  "updatedAt": "2018-07-10T10:53:14.251Z"
}